:100253003F065B4F666D7D077F6F777C395E7971F3
:08026300FEFDFBF7EFDFBF7F9A
:07028500020900000108005E
:10026B00759850438920758DFDD28ED2AFD2AC22BA
:080003008F993099FDC299228A
:03002300020120B7
:0F012000C0E0C083C082C0D075D000C000C0074F
:10012F0030983EC298AF99C3E50A9403E5096480FD
:10013F0094805017EF90025393FF740B250AF8A683
:10014F0007050AE50A701A05098016EF9002539306
:10015F00FF740B250AF8A607430C80750900750A72
:06016F0000309902C29964
:0D017500D007D000D0D0D082D083D0E032AF
:10023600E4F52BF52C12027B12026B1200B2EFC30F
:0D024600940040F7EF941150F28F9980EE74
:03028D00DFFE226F
:10000E00AE07AF061EEF600C7FF512028D7FF51264
:05001E00028D80EE22BE
:1001E500E4F580D2A2C2A2E5082F90026393F580C0
:1001F500D2A3C2A3740B2508F8E6F580D2A2C2A249
:0A0205000508E508B50503E4F50857
:01020F0022CC
:0A027B00438901D2AFD2A9D28C2230
:03000B000201B837
:1001B800C0E0C083C082C0D075D000C000C005C0F8
:1001C80007758CF8758A307D08E4FF1201E5D007C1
:0D01D800D005D000D0D0D082D083D0E0324E
:1001820075900FE590540FFD640F60277F0A1200EF
:100192000EE590540F640F601AE590540FFD44F081
:1001A200F590E59054F0FFE59054F0FEBEF0F8EDC6
:0501B2002FFF227FFF7A
:0101B7002225
:1000B200120182EF12021000F67700F37B00F07D4E
:1000C20000ED7E0102B700FFBB00FCBD00F9BE01DE
:1000D2000ED7010BDB0108DD0105DE011AE701176E
:1000E200EB0114ED0111EE0000011D7F00227F01E2
:1000F200227F02227F03227F04227F05227F0622A3
:100102007F07227F08227F09227F0A227F0B227F1C
:0E0112000C227F0D227F0E227F0F227FFF2204
:03000000020026D5
:0C002600787FE4F6D8FD75812C02006D97
:10021000D083D082F8E4937012740193700DA3A37D
:1002200093F8740193F5828883E473740293686091
:06023000EFA3A3A380DF91
:10003200020236E493A3F8E493A34003F68001F2AC
:1000420008DFF48029E493A3F85407240CC8C333CF
:10005200C4540F4420C8834004F456800146F6DF9E
:10006200E4800B0102040810204080900285E47EA7
:10007200019360BCA3FF543F30E509541FFEE49393
:10008200A360010ECF54C025E060A840B8E493A35A
:10009200FAE493A3F8E493A3C8C582C8CAC583CA85
:1000A200F0A3C8C582C8CAC583CADFE9DEE780BE3D
:01028C000071
:00000001FF
